:020000040800F2
:10000000900D002001010008635200080B01000858
:1000100061520008F1140008C573000800000000D8
:10002000000000000000000000000000A55B0008C8
:1000300075240008000000000D5600083F6D000800
:100040001B0100081B0100081B0100081B01000820
:100050001B0100081B0100081B0100081B01000810
:100060001B0100081B0100081B0100081B01000800
:100070001B0100081B0100081B0100081B010008F0
:100080001B0100081B0100081B0100081B010008E0
:100090001B0100081B0100081B010008B92700080C
:1000A0001B0100081B0100081B0100081B010008C0
:1000B0001B0100081B0100081B0100081B010008B0
:1000C0001B0100081B0100081B0100081B010008A0
:1000D0001B010008AD7300081B010008B97300087C
:1000E0001B0100081B0100081B010008DFF80CD0F1
:1000F00000F04CFD00480047C17F0008900D002033
:100100000648804706480047FEE7FEE7FEE7FEE7B1
:10011000FEE7FEE7FEE7FEE7FEE7FEE7C56D000847
:10012000ED000008202A04DB203A21FA02F0002129
:10013000704721FA02F3D040C2F1200291400843F7
:100140001946704740EA01039B0703D009E008C93C
:10015000121F08C0042AFAD203E011F8013B00F88C
:10016000013B521EF9D27047D2B201E000F8012BD8
:10017000491EFBD270470022F6E710B513460A4627
:1001800004461946FFF7F0FF204610BD30B505467E
:100190002A460B4612F8010B13F8014B08B1A04296
:1001A000F8D01CB1002802D06D1CF1E7284630BD04
:1001B0000FB400B58DB010A909900B9000914FF0CD
:1001C000FF300A9000200C900548069005480790E3
:1001D0006A4609A80F9900F083FB0DB05DF814FB87
:1001E000FD0800081B0900082DE9FF5F1D464FF0C0
:1001F000FF3BD5E9014691465F464FF00008A969EB
:100200007F1C01988847296A824688470028F6D1D2
:10021000BAF1FF3F0CD024F4C064002E19DD600653
:1002200014D5BAF12B0F09D0BAF12D0F0ED103E07E
:10023000584604B0BDE8F09F44F48064A9697F1C6F
:1002400001988847761E8246002E02DDBAF1300FF3
:1002500003D0B9F1000F26D032E0A969761E44F42C
:1002600000747F1C019888478246002E05DDBAF194
:10027000780F06D0BAF1580F03D0B9F1000F10D0A3
:100280001EE0B9F1000F02D0B9F1100F18D1A96921
:10029000761E24F400747F1C019888478246102043
:1002A00002E0082000E00A20814609E008FB090876
:1002B000A969761E44F400747F1C01988847824621
:1002C000002E05DD4946504600F0F6FA0028EDDA2A
:1002D000E96901988847A00502D46FF00100A8E7FA
:1002E000E00725D1600613D5600502D5C8F10000EE
:1002F00000E0404629680A1D2A600968220501D5E8
:10030000087015E0220701D5088011E008600FE0B1
:100310002868011D29600068210502D580F8008049
:1003200006E0210702D5A0F8008001E0C0F80080B7
:1003300038467EE770B5064607F07AF80468054649
:100340000A220021304600F0F9FA2C6070BD42000C
:1003500005D0C0F3C7525242914201DC00207047E1
:1003600000EBC15070472DE9FE4F804681EA030043
:10037000C00F0C46009021F0004123F00045B8EB7F
:100380000200A94105D24046214690461C460B4634
:10039000024623F00040104347D0270DC7F30A0060
:1003A000C3F30A510290401A019040286BDAC3F35C
:1003B000130040F4801B0098924620B10023D2EB3A
:1003C000030A63EB0B0B01985946C0F140025046FB
:1003D00000F051FA06460D4650465946019A00F083
:1003E00059FA10EB08006141002487EA115284EAAF
:1003F000E7731A4340D0009A62B3019A012A4FEA88
:10040000075215DC001B61EB02014FF0004202EACB
:100410000752CDE90042001C41F5801132462B46BF
:1004200000F00AFB03B0BDE8F08F40462146F9E733
:10043000001B61EB0201001C41F5801300185B41B9
:100440002018A2F5001747EB030140EAD570B61952
:100450006D4111E06D084FEA360645EAC0754FEA76
:100460000752001B61EB0201001C41F58011490895
:100470004FEA30000019514132462B4603B0BDE827
:10048000F04F00F0CABA0098012240000023D0EBE0
:10049000020263EBE073009821464FEAE074B8EB88
:1004A000000061EB0401E9E783F000435BE781F0C2
:1004B000004158E72DE9FE4F81EA030404F00044AF
:1004C00021F0004100944FF0000B23F0004350EA6C
:1004D00001045ED052EA03045BD0C3F30A54C1F3B3
:1004E0000A552C44A4F2F3340194A0FB0254C1F346
:1004F000130141F48011C3F3130343F4801301FB90
:10050000024400FB034E840A970A44EA815447EAF6
:100510008357A4FB076802958D0A05FB07854FEA00
:10052000932C04FB0C542705029D4FEA065847EA1A
:100530001637B5EB08056EEB070C870E920E47EAEF
:10054000811742EA8312A7FB0201B6EB0B0164EBB1
:1005500000042B0D43EA0C335E1844EB1C50DA46C2
:100560005146E7FB0201C5F313044FEA0B3343EA9C
:1005700014534FEA0432019C43EA0603A4F10C042D
:100580000294009CCDE900B400F056FA03B0BDE837
:10059000F08F00200146F9E72DE9F04D81EA0304D0
:1005A00004F0004B21F0004514464FF0000A23F000
:1005B000004150EA050220D054EA01021DD0C5F3E3
:1005C0000A570246C5F31303C1F31300C1F30A56D9
:1005D00040F4801543F48013A7EB0608101BD646A1
:1005E00008F2FD3873EB050002D308F1010801E0C1
:1005F00092185B41B8F1000F03DA00200146BDE814
:10060000F08D00204FF48011064684460EE0171B43
:1006100073EB050705D3121B63EB050306434CEA96
:10062000010C49084FEA300092185B4150EA01077B
:10063000EDD152EA030012D082EA040083EA0501F8
:10064000084305D0101BAB4106D20122002306E06F
:1006500000224FF0004302E06FF0010253101AEB4A
:1006600006004CEB085110EB0A0041EB0B01BDE812
:10067000F04D00F0D2B970B521F0004303430CD027
:10068000C1F30A550024D5EB040564EB0403D61727
:10069000AD1AB34102DB0020014670BD201841EBCA
:1006A000025170BDC10F80EAE0700844CA0796236A
:1006B000002100F084B90EB5C10F80EAE070084453
:1006C000CA07002140F233438DE80E000A460B466C
:1006D00000F0B2F903B000BD0EB540F23341029113
:1006E0000021CDE900110A460B4600F0A5F903B040
:1006F00000BD70B5C1F30A5201F000450024C1F3FA
:10070000130140F2FF3341F480119A4201DA0020D4
:1007100070BD40F233439A42A2F2334203DC5242AC
:10072000FFF700FD00E090402C43F1D0404270BD47
:10073000C1F30A5210B5C1F3130140F2FF3341F483
:1007400080119A4201DA002010BD40F233439A42F0
:10075000A2F2334203DC5242FFF7E4FC10BD9040AA
:1007600010BD00F0004230F000400AD0C10D01F58C
:100770006071C0F3160042EA0151C20840071143FC
:10078000704700200146704730B5041E71F1000427
:1007900004DB4FF00044404264EB0101141E73F18E
:1007A000000405DB1C464FF00043524263EB040398
:1007B0008B4208BF824230BD30B5041E71F1000487
:1007C00004DB4FF00044404264EB0101141E73F15E
:1007D000000405DB1C464FF00043524263EB040368
:1007E000994208BF904230BD30B50B46014600200B
:1007F0002022012409E021FA02F59D4205D303FAE3
:1008000002F5491B04FA02F52844151EA2F1010263
:10081000F1DC30BD2DE9F05F0546002092469B4695
:1008200088460646814640241BE028464146474606
:100830002246FFF777FC53465A46C01A914110D31F
:1008400011461846224600F016F82D1A67EB0108EB
:100850004F4622460120002100F00DF817EB000959
:100860004E41201EA4F10104DFDC484631462A46F1
:100870004346BDE8F09F202A04DB203A00FA02F14B
:10088000002070479140C2F1200320FA03F319437E
:1008900090407047202A06DBCB17203A41FA02F03D
:1008A00043EAE07306E041FA02F3D040C2F12002CD
:1008B00091400843194670473A2800D2303820F05A
:1008C0002002412A01D3A2F13700884201D34FF020
:1008D000FF30704702681144137801601846704772
:1008E000D16004495161044911620021116111462E
:1008F00000F06CB9D5080008B90B0008426842B195
:10090000016811F8013B23B1521EC0E900121846DC
:1009100070470121C160881E704742685AB1C368A0
:10092000016843B983688B4205D0491E521CC0E957
:100930000012002070474FF0FF3070472DE9F0475C
:1009400091460F4680460446002614F8015B2DB1FF
:1009500000F02EF90068405DC007F6D12B2D02D0C3
:100960002D2D18D0641E4A463946204600F0C4FAA0
:1009700027B13968A14201D1C7F8008071054FF055
:1009800002040BD54042002803DD06F051FD04604F
:10099000A007BDE8F08746F48066E4E70028F8DAAF
:1009A00006F046FD04606FF00040F2E70029A8BFA2
:1009B0007047401C490008BF20F00100704710B488
:1009C000B0FA80FC00FA0CF050EA010404BF10BC3D
:1009D000704749B1CCF1200421FA04F411FA0CF16A
:1009E00018BF012121430843A3EB0C01CB1D4FEAA3
:1009F00000614FEA102042BF002010BC704700EB9E
:100A0000C35010440029A4BF10BC7047401C4900CB
:100A100008BF20F0010010BC704710B5141E73F120
:100A2000000408DA401C41F1000192185B411A43AE
:100A300001D120F0010010BD2DE9F04D92469B46FA
:100A400011B1B1FA81F202E0B0FA80F220329046A0
:100A5000FFF711FF04460F4640EA0A0041EA0B0186
:100A600053465A46084313D0114653EA010019D0A1
:100A7000C8F140025046FFF755FB05460E4650466A
:100A800059464246FFF7F7FE084305D0012004E02F
:100A900020463946BDE8F08D0020054346EAE07661
:100AA0002C4337430A986305E40AA0EB08000022B0
:100AB000FD0A44EA47540A3002D500200146E9E71E
:100AC000010510196941DDE9084500196941BDE8D2
:100AD000F04DA2E72DE9F041054621F000400C461B
:100AE000284309D0C4F30A5040F23341884205DD5F
:100AF00028462146BDE8F0812846FBE740F2FE315A
:100B0000884210DC0CDB4FEA043040EA155050EA12
:100B1000053105D0104804F0004101430020E9E709
:100B200000200146E6E7A0F233404642C6F140020B
:100B300028462146FFF79FFE07468846284621465D
:100B40003246FFF7EFFA43463A46FFF766FF324672
:100B5000BDE8F041FFF78FBE0000F03FC1F30A523D
:100B6000C1F3130140F2FF3341F480119A4202DADB
:100B700000200146704740F233439A42A2F23342CA
:100B800002DC5242FFF7CEBAFFF775BE064C074DA6
:100B900006E0E06840F0010394E80700984710344D
:100BA000AC42F6D3FFF7A6FA9CAC0008BCAC000838
:100BB00000487047C8AB000810B50446FFF7F8FFBF
:100BC0000068005D00F0010010BD00002DE9F34F4A
:100BD0008BB04FF0000801F10C000C464FF0010BF8
:100BE00046460DF1080A019062690121019890477B
:100BF000051E2DD0252D2CD0216A8847C0B16269F1
:100C0000012101989047216A88470028F7D1411EA9
:100C100062690198904700E0761CA1690B988847AB
:100C2000216A88470028F7D1E1690B988847DBE7FC
:100C3000A1690B9888470746A84201D1761CD3E7E3
:100C4000E1690B9888477F1C02D1B8F1000F6FD083
:100C500046E1002762693D463946019890472A28B7
:100C600004D162690121019890470125DFF884923F
:100C70006269012101989047A0F130010A290AD246
:100C80004F45E5DC07EB870100EB4107303FDFD440
:100C900045F01005ECE7E90601D46FF000476C2839
:100CA0000AD04C2814D0682815D06A280DD0742892
:100CB0001CD07A281AD01DE0626901210198904762
:100CC0006C2802D045F0040514E045F002050DE063
:100CD00045F020050AE062690121019890476828E3
:100CE00002D045F0080505E045F400656269012180
:100CF00001989047C4E9015765283DD019DC582870
:100D00007AD00CDC452837D004DC252826D04128B1
:100D100031D131E046282FD047282CD12CE05B2858
:100D200077D0612828D063287CD0642823D15AE06A
:100D3000D0E06F2848D008DC66281DD067281BD07B
:100D4000692821D06E2816D127E0702845D0732855
:100D500068D0752847D078280DD14DE0A1690B984F
:100D60008847054625283FF469AFE1690B98884715
:100D70006D1C3FF46AAFB3E023466A466FF0010092
:100D80000B99AFF300809EE045F040006060A8073B
:100D900023464FF0000236D43EE0E8077FF447AF29
:100DA0002068011D21600068290501D506701BE738
:100DB000290701D5068017E7A90703D5F117C0E970
:100DC000006111E706600FE745F040006060A8078A
:100DD00023464FF0080216D41EE040F60E0125EA25
:100DE0000100606016E045F040006060A8072346FF
:100DF0004FF00A0207D40FE045F040006060A807FA
:100E000008D5234610226FF001000B99AFF3008044
:100E100059E007E0234610226FF001000B99FFF71D
:100E2000E3F950E04FF000094F464B46632802D0EB
:100E30005B2806D040E0E80601D40120A06001272D
:100E40003AE062690121019890475E2805D14FF090
:100E500001096269494601989047216939B9002121
:100E60000A46534643F82120491C0829FADBB0B34F
:100E7000216969B9C11700EBD16253110AEB8301F3
:100E800022F01F02821A01200B68904003430B607E
:100E900062690121019890475D28E8D1B9F1000FFE
:100EA00009D00020514651F82020D24341F820209B
:100EB000401C0828F7DB02AB224600976FF00100C8
:100EC0000B99AFF3008000280CDA401C08D1BBF16D
:100ED000000F05D04FF0FF300DB0BDE8F08FFFE7F9
:100EE0004046F9E7E90701D108F1010806444FF04F
:100EF000000B79E6CCCCCC0C2DE9F05F8246007873
:100F0000002715468B460AF10104B946302801D066
:100F10009DB113E014F8010B0127782803D058285D
:100F200001D045B10AE00DB1102D07D100271025E1
:100F300014F8010B02E0082500E00A250026B0465F
:100F40000EE005FB080005FB06F1012701EB10464A
:100F50001FFA80F8B6F5803F00D3B94614F8010BAC
:100F60002946FFF7A9FC0028EBDABBF1000F05D0FA
:100F70000FB1641E00E05446CBF80040B9F1000FF9
:100F800006D006F055FA02210160C81EBDE8F09FA8
:100F900048EA0640FAE730B58C1810F8012B12F039
:100FA0000F0301D110F8013B120906D110F8012BF3
:100FB00003E010F8015B01F8015B5B1EF9D101E071
:100FC00001F8013B521EFBD1A142E6D3002030BD07
:100FD00070B5044600688168C943C9071CD181689F
:100FE00021F00101816002F055F905460FE000BFD4
:100FF00002F050F9401B022809D9A06A40F0100005
:10100000A062E06A40F00100E062012070BD20684B
:101010008068C043C007EBD0002070BDF8B5002643
:101020000446009600688168C943C90728D08168D2
:1010300041F001018160134813490068B0FBF1F0F1
:1010400000E0401E00900028FBD102F023F9054685
:1010500011E000BF02F01EF9401B02280BD9A06A64
:1010600040F01000A062E06A40F00100E06284F805
:1010700024600120F8BD20688068C043C007E9D122
:101080000020F8BD2C02002040420F002DE9F0475F
:1010900092468946044600252CE02038A208C6B2B4
:1010A0003B2A05D9002409F11800224600F0FF0967
:1010B00002F11F00C1B21C32D0B205F003FE09F1EB
:1010C0001700C1B2484605F00EFE05F01DFEDFF820
:1010D0003080002706EB460607EB061118F80100E2
:1010E00000F0EAFC7F1CFFB2302FF5D36D1C0C34EE
:1010F000EDB2E4B21AF805000028CED1BDE8F087C1
:10110000649100082DE9F04792468946044600257F
:101110002AE02038A208C6B23D2A05D9002409F1E8
:101120000800224600F0FF0902F11D00C1B21C3286
:10113000D0B205F0C7FD09F10700C1B2484605F07D
:10114000D2FD05F0E1FDDFF82C80002707EBC6019A
:1011500018F8010000F0B0FC7F1CFFB2082FF5D397
:101160006D1C0834EDB2E4B21AF805000028D0D1A5
:10117000BDE8F087D48900082DE9F04792468946FA
:10118000044600252CE02038A208C6B23D2A05D925
:10119000002409F10C00224600F0FF0902F11D00B5
:1011A000C1B21C32D0B205F08DFD09F10B00C1B205
:1011B000484605F098FD05F0A7FDDFF830800027D0
:1011C00006EB460607EB860118F8010000F074FCF8
:1011D0007F1CFFB20C2FF5D36D1C0834EDB2E4B2C6
:1011E0001AF805000028CED1BDE8F087E48C00088D
:1011F000F8B5044602F04EF8054620208DF80000B0
:10120000200C8DF80100200A8DF802008DF80340B3
:1012100000F020F9114E4FF4805400222146304650
:1012200002F033F84FF47A73042269460C4802F056
:101230006EFF01222146304602F027F800F020F828
:101240000228FBD002F026F8401B40F6B831884255
:1012500001D90320F8BD0020F8BD0000000C0140BA
:101260002C06002070B500244FF080752046FFF753
:10127000BFFF04F58054AC42F8DB002070BD0000D5
:101280007CB512A0124D00684FF4805400900022EB
:101290002146284601F0F9FF4FF47A7633460122C1
:1012A00069460C4802F033FF3346012201A9094880
:1012B00002F080FE01222146284601F0E6FF9DF85B
:1012C0000400C00700D002207CBD00000500000023
:1012D000000C01402C06002038B50DA00D4D006813
:1012E0004FF48054009000222146284601F0CDFFA3
:1012F0004FF47A7302226946074802F008FF012280
:101300002146284601F0C1FFBDE83840FFF7B8BFCD
:1013100066990000000C01402C0600202DE9F843DE
:10132000054603208DF80000080C8DF80100080A1E
:101330008DF80200DFF8488014468DF803104FF452
:10134000805700223946404601F09FFF4FF47A76DD
:101350003346042269460B4802F0D9FEA2B2334656
:101360002946084802F026FE10B10120BDE8F883A6
:1013700001223946404601F088FF0020F6E70000D0
:10138000000C01402C0600202DE9F74F82B01646D4
:101390000C4601F07FFF0746002001E000F5807059
:1013A000A042FBD9051BB54200D9354604EB060B1C
:1013B000DFF898904FF0020A4FF480584FF47A7695
:1013C0008DF800A0200C8DF80100200A8DF8020095
:1013D0008DF8034000F03EF800224146484601F0F7
:1013E00054FF334604226946194802F090FE30B992
:1013F000AAB233461648029902F089FE18B10120BC
:1014000005B0BDE8F08F01224146484601F03DFF9E
:1014100007E000BF01F03EFFC01BB04201D903202E
:10142000EEE7FFF72DFF0228F4D002982C44284461
:10143000029004F58070584502D9ABEB040501E039
:101440004FF480755C45BBD30020D9E7000C014008
:101450002C060020F8B515A00068009001F01AFFD6
:10146000134F05464FF4805600223146384601F0AE
:101470000CFF4FF47A742346012269460D4802F0AE
:1014800046FE01223146384601F0FFFE07E000BF6C
:1014900001F000FF401BA04201D90320F8BDFFF777
:1014A000EFFE0228F4D00020F8BD00000600000086
:1014B000000C01402C0600200B484FF47A710068A4
:1014C000B0FBF1F0401EB0F1807F0BD24FF0E02175
:1014D0004861064AF02082F8140D00208861072038
:1014E00008617047FEE700002C0200200FE000E0DA
:1014F000FEE700002DE9F04FF348C1B00188090470
:101500007ED500240460802110A8FEF734FEEFA1F0
:10151000EF48FEF73BFE98B1EEA1ED48FEF736FE30
:10152000B8B1EDA1EA48FEF731FEEC4E05004FF4EC
:10153000803866D0E8783F2811D03D281ED0DCE006
:101540008021E34806F0CEFF0221E5A006F0CAFFA5
:10155000B6E10521E3A000BF06F0C4FFCDE0802185
:10156000DB4806F0BFFF0221DDA006F0BBFFDFA1D4
:1015700010A8726E05F038FF14210EE1706E404520
:101580000BD18021D24806F0ADFF0221D4A006F095
:10159000A9FF1421DAA006F0A5FF281D06F0BAFB6A
:1015A000A0F58031B1F57F0F65D8C11700EB9160D0
:1015B00020F03F058021C64806F094FF0221C8A014
:1015C00006F090FF52E04022294630A8FFF7A6FE21
:1015D00030A803F0C3FFBE4CDDE93867203CE0696A
:1015E000FFF7BFF881468B46A068FFF7BAF8029074
:1015F0008A466068FFF7B5F800908846206801E0E9
:101600007FE044E0FFF7ADF80B46C7F30721C6F3D0
:10161000074C0DF1340ECDF828C08EE8020AFAB25C
:10162000370ECDE90B72278BE28AC6F30721F6B29B
:10163000CDE90861CDE90627A18A2269CDE9042117
:101640000246CDF80CA0CDF80480B24910A805F0F0
:10165000CBFE802110A806F045FF0221A0A006F0D5
:1016600041FF802110A8FEF786FD40359B48406E63
:101670008542A8DB41E04FF08001954806F032FF3B
:10168000022197A006F02EFF1021A3A064E7A6A1D7
:101690008F48FEF77BFD914D0127E135002833D0BF
:1016A000306E4FF08001002889481BD006F01AFFE9
:1016B00002218BA006F016FF0D219CA006F012FF60
:1016C000FFF7D0FDC6F86480AF71EC712C72722206
:1016D00000212846FFF758FE0E2198A006F002FFD1
:1016E00034660AE006F0FEFE02217DA006F0FAFE56
:1016F000302196A006F0F6FE376680217448FEF78A
:101700003AFD41B0BDE8F08F9CA17148FEF73EFD67
:10171000002844D0861D9BA16D48FEF737FD0700C9
:101720003FF40EAF6D481521B830FEF724FD6B482D
:10173000BA1B3146B830FEF705FD92A16448FEF7AA
:1017400025FD064665481421CD30FEF714FD63489B
:101750001422711CCD30FEF7F5FC0020FFF748FD88
:101760005E491522B83101F13200FEF7EBFC5B490E
:101770006C77CD31142201F13300FEF7E3FC5748BA
:1017800085F8324072220021E130FFF7FDFD534B16
:101790007DA1CD33A3F1150282E010A8DCE689A17A
:1017A0004B48FEF7F3FCD0B18021494806F09AFE81
:1017B00002214BA006F096FE0F2183A006F092FEB8
:1017C00087F31388BFF34F8F83480168834A01F47E
:1017D000E06111430160BFF34F8F00BFFDE780A1BF
:1017E0003B48FEF7D3FC00286AD07FA13848FEF7BB
:1017F000CDFC80B18021364806F074FE022138A06D
:1018000006F070FE354B79A19033A3F1180210A8B1
:1018100005F0EAFD4FE07BA12D48FEF7B7FC401C28
:10182000074658A1FEF7B2FC060046D02B48182107
:101830007830FEF7A0FC2948F21B39467830FEF7D5
:1018400081FC264828219030761CFEF794FC234822
:10185000282231469030FEF775FC0020FFF7C8FCC7
:101860001E491822783101F19E00FEF76BFC1B49DE
:1018700005F84C4F9031282201F19500FEF762FCEB
:101880001648EC7772220021E130FFF77DFD36210A
:101890005DA006F027FE114B54A19033A3F118026E
:1018A00010A805F0A1FD8021094806F01BFE0221C9
:1018B0000BA006F017FE80216FE7102160A04BE619
:1018C000122163A048E600007C0100204154000082
:1018D000F404002041542B00455850001000002013
:1018E0000D0A000041540D0A0000000043555252F9
:1018F0005F414444523A253038580D0A0000000038
:101900004E6F206461746120746F206578706F720F
:10191000740D0A001CAC0008496E76616C69642085
:10192000416464726573730045525300576F726B64
:10193000696E672E2E2E0D0A00000000457261733D
:101940006520646F6E65210D0A0000005479706592
:1019500020616761696E20746F20636F6D666972C4
:101960006D20746865206572617365206F662077ED
:10197000686F6C6520636869700D0A0043574A41BF
:10198000503D00002C0000004E65772057694669E5
:1019900020536574204F4B0D0A535349443A257325
:1019A00020506173733A25730D0A5265626F6F742C
:1019B00020746F2074616B65206566666563740DC5
:1019C0000A0000005253540053797374656D20521D
:1019D000657365740D0A00000CED00E00400FA0563
:1019E000434D5345540000003F00000044657649D4
:1019F000443A2573204150492D4B65793A25730DA2
:101A00000A0000003D0000004E6577204465762006
:101A1000494420616E6420415049204B6579205330
:101A20006574204F4B2C5265626F6F7420746F2069
:101A300074616B65206566666563740D0A0000005D
:101A4000496E76616C69642044657649440D0A00EC
:101A5000496E76616C696420436F6D6D616E640DD3
:101A60000A0000001CB5002001F043F80CA214216C
:101A70001E20FFF747FB4FF4FA6001F0F1FA002057
:101A800001F037F840210020CDE900015F231A461C
:101A90000221DD2000F0F7FC0649012008601CBD92
:101AA00053657474696E672053756363657373213E
:101AB000000000006C0000202DE9FC5F00240546BA
:101AC000A0464FF00F094FF0F00A4FF0FF0B6E46A3
:101AD0000DF1040715F0C00006D0402807D080287B
:101AE00008D0C0280BD108E006F8048007E006F80B
:101AF000049004E006F804A001E006F804B0A8068B
:101B0000000E10F0C00106D0402907D0802908D06F
:101B1000C0290BD108E007F8048007E007F804901B
:101B200004E007F804A001E007F804B08006050E01
:101B3000305D012103F094FC385D012103F090FC3D
:101B4000641CE4B2022CC5D3BDE8FC9F2DE9F14F23
:101B5000ACB0784A78A10CA805F046FC7D4801F0AD
:101B6000C8FB4FF47A727CA10CA800F0EFFD48B1DD
:101B70007AA000F07BFD002845D17BA000F076FD27
:101B800000282CD07D4D00247248AC6001F0B1FBE0
:101B90004FF4007631467A48FEF7EDFA64226EA1E2
:101BA00078A000F0D3FD31467548AC60FEF7E3FA4B
:101BB000642001F055FA80210CA8FEF7DCFA654894
:101BC00001F097FB4FF4FA773A4663A171A000F059
:101BD000BDFD80B161A000F049FDA0B903E0012086
:101BE0002DB0BDE8F08F3A465BA16AA000F0AEFDD3
:101BF00008B10320F4E7574801F07BFB3146604809
:101C0000AC60FEF7B8FA66480068FEF7AAFD8246A7
:101C100064488B460068FEF7A4FD07466248894683
:101C20000068FEF79EFD0646604888460068FEF79D
:101C300098FD04465E480D460068FEF792FD08AB2D
:101C40005C4A83E8800E5C4B5C4FDFF874C11288FD
:101C50001B683F88BCF800C0CDE9063205978DE8C7
:101C60007011024646480B465649643805F0BCFBE5
:101C7000554805F0A9FB554955A005F0A5FB52486C
:101C80000F3005F0A1FB50482D3005F09DFB514968
:101C900051A005F099FB4C48363005F095FB4A48B9
:101CA0004E3005F091FB3648643806F047F8821C48
:101CB0004BA1324805F098FB304805F085FB4248BF
:101CC000C01F05F081FB2E48643805F07DFB6420C1
:101CD00001F0C6F9294C06E00A2001F0C1F941A043
:101CE00000F0C4FC18B96068401E6060F4D1642044
:101CF00001F0B6F9174801F0FCFA28212C98FEF7FC
:101D00003AFA1F48007868B13AA11D48FEF73EFA3A
:101D100004463AA11A48FEF739FA021B21462C98CC
:101D2000FEF710FA2C98007808B1002058E702203E
:101D300056E700006801002041542B43495053549A
:101D40004152543D22544350222C222573222C38D8
:101D5000300000000C0600204F4B00004261642060
:101D60005265717565737400414C52454144592068
:101D7000434F4E4E454354454400000000000020B0
:101D80009802002041542B4349504D4F44453D316A
:101D90000000000041542B43495053454E4400007D
:101DA00054000020500000204C000020480000207B
:101DB00044000020140000205800002016000020DD
:101DC00018000020CCAB0008DBA800088800002029
:101DD00025730000A000002025730D0A00000000FC
:101DE00025640000485454502F312E3120323030B9
:101DF00000000000446174653A20000020474D5403
:101E0000000000002DE9F04F00258BB0284600F0BF
:101E100070FEE148DFF884834FF01A0A00684FF043
:101E20002709C11700EB11506FF30B004FF0180B8F
:101E30000190DB4801F05DFADAA102A8019A05F0F1
:101E4000D3FA0022172311460A20CDF800A004F08F
:101E50005FFF00224E46272311464A20CDF800900E
:101E600004F056FF02AA05215820FFF74BF917236B
:101E700000220D210A20CDF800B004F049FF2920EE
:101E80000090282300220D212A2004F041FF27235F
:101E900000220D214A20009604F03AFF0E20009007
:101EA0000D2300221A210A2004F032FF05EB8500E1
:101EB00000EBC507FF1CF9B2BCA20020FFF722F916
:101EC000B8F800004646011B03290ADD0446F9B2B2
:101ED000B7A20020FFF716F96D1C022D0DDB0225BD
:101EE0000BE0211A032908DD0446F9B2B0A2002054
:101EF000FFF708F96D1E00D5002500F07BFC0128D6
:101F000097D19DB1012D7CD0022D92D1002000F0FF
:101F1000F0FD40210020CDE900015F231A46022197
:101F2000DD2000F0B0FA0BB0BDE8F08F2C27B046F2
:101F30002A23002227218020009704F0E9FE9DA299
:101F400034218020FFF7DEF89BA234219220FFF796
:101F5000D9F8A6B196A234217820FFF7D3F893A23E
:101F600034218820FFF7CEF8B8F80000011B0329C0
:101F70000CDD761C0446012E0FDB01260DE08BA242
:101F800034217820FFF7BEF889A2E9E7211A032956
:101F900003DD0446761E00D5002600F02BFC012848
:101FA000C6D1002E73D12D26334600222721802052
:101FB000009604F0ADFE2D230022272190200096EC
:101FC00004F0A6FE2D2300222721A020009604F075
:101FD0009FFE2D23002234218020009604F098FEDD
:101FE0002D23002234219020009604F091FE2D2311
:101FF00000223421A020009604F08AFE664E30684C
:1020000000E01BE0B0F5883F02DBA0F5805001E066
:102010004FF4803030600020FFF7EAF830686749FD
:10202000020C8A71020ACA71087272220021634886
:10203000FFF7AAF90198FFF7DBF8A7E02C27B046D5
:102040002A23002227218020009704F061FE59A254
:1020500034218020FFF756F857A234219220FFF751
:1020600051F8AEB152A234217820FFF74BF84FA2BD
:1020700034218820FFF746F8B8F80000011B032937
:102080000DDD761C0446012E10DB01260EE012E069
:1020900046A234217820FFF735F845A2E8E7211A57
:1020A000032903DD0446761E00D5002600F0A2FBBE
:1020B0000128C5D15EB32D2633460022272180207A
:1020C000009604F025FE2D23002227219020009663
:1020D00004F01EFE2D2300222721A020009604F0EC
:1020E00017FE2D23002234218020009604F010FEDC
:1020F0002D23002234219020009604F009FE2D2388
:1021000000223421A020009604F002FE91E62D2644
:102110003346002227218020009604F0F9FD2D236C
:10212000002227219020009604F0F2FD2D230022AA
:102130002721A020009604F0EBFD2D23002234215E
:102140008020009604F0E4FD2D230022342190200D
:10215000009604F0DDFD2D2300223421A0200096FE
:1021600004F0D6FD16A234218820FEF7CBFFFFF73E
:1021700079F809484FF48031722201600F4801213B
:1021800081710021C1710172FFF7FEF80EA23421A6
:102190007820FEF7B7FF4CE6740000208401002091
:1021A0000C06002030782530385800003E00000032
:1021B00020000000590000004E000000F100002047
:1021C000776F726B696E6700646F6E6521202020E7
:1021D00020202020000000002DE9F04F00258BB0CA
:1021E000284600F086FC96480468B4F5803F0CD081
:1021F0009448403C01F07DF84FF0160A4FF01D095D
:10220000DFF844824FF0250B0DE090A214211E2030
:10221000FEF778FF4FF4FA6000F022FFEAE0894809
:1022200001F067F835B900218EA20846FEF76AFF73
:102230008DA20CE0012D04D0022D0ED0032D20D153
:102240002AE0002188A20846FEF75CFF85A234211F
:102250000020FEF757FF84A20AE0002182A2084670
:10226000FEF750FF80A234210020FEF74BFF7DA235
:1022700034216420FEF746FF7BA23421A020FEF724
:1022800041FFB8F80000811B032916DD6D1C0646CE
:10229000032D19DB032517E0002173A20846FEF782
:1022A00031FF71A234210020FEF72CFF6EA23421F1
:1022B0006420FEF727FF6BA2DFE7311A032903DD55
:1022C00006466D1E00D500250E2000900D2300222D
:1022D00034210A2004F01CFD5F4623230022342110
:1022E0007020CDF800B004F013FD262003460090C6
:1022F00000223421AC2004F00BFD242300223421E1
:10230000BC20009704F004FD224658A102A805F065
:102310006BF800225746152311460A20CDF800A07D
:1023200004F0F6FC00221C2311462A20CDF8009070
:1023300004F0EEFC02AA05214820FEF7E3FE00F0BF
:1023400059FA01287FF46BAFA5B1012D52D0022DAF
:1023500060D0032DF6D13A4880340068403884427A
:1023600001DB4FF48034204603F052F9354800F089
:10237000C0FF5FE7BA464746324800F0BAFF224640
:102380003AA102A805F030F80022152311460A20D0
:10239000CDF800A004F0BCFC00221C2311462A202A
:1023A000CDF8009004F0B4FC02AA05214820FEF705
:1023B000A9FE3888811B032909DD064620484034E0
:1023C0000068403884420DDB4FF480340AE0311A53
:1023D000032907DD403C0646B4F5803F02DA184881
:1023E0000468403C00F006FA0128C5D1204603F0FD
:1023F0000FF914E7002000F07CFB40210020CDE91C
:1024000000015F231A460221DD2000F03CF80BB0EA
:10241000BDE8F08F4FF48031803C8C4208DA0848E8
:102420000068A0F58032A0F18004403A00D10C464B
:10243000204603F0EDF8034800F05BFF0DE70000D5
:10244000740000200C060020840100204E6F2072D2
:1024500065636F72642063616E20626520666F75CC
:102460006E6421003E00000020000000307825301E
:1024700038580000704701B5009801E0401E0090F8
:102480000028FBD108BD2DE9FF4F87B09D08DDF87E
:1024900050B011F003000E464FEA9209029019D095
:1024A000B40805F11C0109F11C00CDE9000104F09C
:1024B00009FC0BEB06000590401EC1B2584604F023
:1024C00012FC04F021FCA5EB09004FF0000A00F11A
:1024D000010816E0FF2000EB9600C4B2E1E70027F8
:1024E00009E00121079802F0BBFF0121079802F0E3
:1024F000B7FF7F1CFFB2B742F3D30AF1010000F02F
:10250000FF0AD045EBDC281B1C30C0B2019904F057
:10251000D9FB1598801BC1B204900598C0B204F095
:10252000E2FB04F0F1FB15984FF0000AA0EB0B075B
:1025300007987F1C00F00F00039027E0002504F1AE
:10254000010B1DE095BB029880B3012804D002283E
:1025500009D0032812D109E00121002002F080FFF8
:102560000121039808E00121002001E001210398E6
:1025700002F076FF0121079802F072FF6D1CEDB2A8
:102580005D45DFD30AF1010000F0FF0A5745D5DCB5
:10259000DDE9000104F096FB04981599401CC0B2D7
:1025A00004F0A1FB04F0B0FB002014E0FFE70121E0
:1025B0000798DDE7002509E00121079802F050FFA8
:1025C0000121079802F04CFF6D1CEDB2B542F3D328
:1025D0000AF10100C0B28246D045EBDC09EB0400F1
:1025E0001C30C1B2009804F06DFB0498C1B205988C
:1025F000C0B204F078FB04F087FB0798002600F0D7
:10260000F00926E0002504F101081EE0A54225D1CD
:10261000029818B3012804D0022805D0032812D14B
:1026200009E00121484601E00121079802F018FF66
:102630000121002005E00121079802F011FF01218E
:10264000484602F00DFF6D1CEDB24545DED3761C09
:10265000F6B2B742D6DC0BB0BDE8F08F0121079887
:1026600002F0FEFE01210798EBE700000146014859
:10267000FDF78CBD9802002070B5214E90B000256A
:102680004FF4FA744FF400711E48B560FDF773FD06
:1026900014221DA11DA000F059F800F077F81E4883
:1026A00000F027FE06E00A2000F0DAFC1BA0FFF78E
:1026B000DDFF08B9641EF6D1174800F01AFE40216C
:1026C0006846B560FDF757FD164B174A17A16846D7
:1026D00004F08AFE4FF47A720BA1684600F036F8D7
:1026E000040002D0012010B070BD0B4800F001FEC4
:1026F0004FF4967204A112A000F028F82046F2E7E9
:1027000000000020980200204F4B000041542B4352
:10271000574D4F44453D33000C06002072656164FF
:1027200079000000DD000020C800002041542B4348
:10273000574A41503D222573222C22257322000046
:1027400041542B4349504D55583D300070B50E460D
:102750000146144600250BA004F036FE86B154B99C
:102760000EE00A2000F07CFC3046FFF77FFF10B13E
:10277000002524B104E0641E2404240CF1D10125B9
:10278000284670BD25730D0A0000000070B5094D84
:102790004FF4006400222146284600F076FD4FF4F5
:1027A0007A7000F05DFC21462846BDE870400122A9
:1027B00000F06BBD0008014010B5202000F064FC63
:1027C00040210A4800F05CFD0949012843F698229F
:1027D000088803D040B1401F088010BD47F2305335
:1027E000984201D2401DF7E70A8010BD000C01405D
:1027F0008401002010B50C4C8021204600F040FDE3
:1028000040B942F21070FFF736FE8021204600F0FA
:1028100037FD08B1002010BD8021204600F030FDBA
:102820000028F9D0012010BD000C01402DE9F04F27
:1028300000248DB02546204600F05BF940210020A1
:10284000CDE900015F231A460221DD20FFF71BFEC0
:10285000DFF83492DFF834A2DFF834824FF00F0B48
:102860000627002288498B4801F065F90022874934
:10287000884801F039F906F071F8874800F039FD11
:102880000E20002200900D2311460A2004F040FA89
:10289000122000900F2300220D210A2004F038FAA4
:1028A0009AF8021099F8026099F8013099F800201E
:1028B0008DE84E009AF801309AF8032077A104A819
:1028C00004F092FD1020CDE900B05E46FF236222A5
:1028D0000121DD20FFF7D7FD04AA03216720FEF7C1
:1028E00011FC16200090132300221A210A2004F064
:1028F0000FFA142000901323002227210A2004F04D
:1029000007FA18200090172300222721282004F01E
:10291000FFF90523002234210A20009704F0F8F97A
:102920001B200346009000223421282004F0F0F9F7
:1029300062A237213420FEF7E5FB62A104A8D8F893
:10294000002004F051FD1A200146009019230022B6
:10295000642004F0DDF91D2000901C2300221A21C0
:10296000842004F0D5F904AA1E21A420FEF7CAFB96
:10297000D8F8000000F0DCF8FDF7F3FE02460B4645
:1029800052A104A804F030FD212000901E23002253
:102990002721642004F0BCF904AA2B21A420FEF70F
:1029A000B1FB4D484DA1D0E9002304A804F01CFD63
:1029B0000F23002234216420009604F0A9F922207C
:1029C0000346009000223421742004F0A1F906236C
:1029D000002234218420009704F09AF9082003464D
:1029E000009000223421942004F092F904AA3821A6
:1029F000A420FEF787FB04EB840000EBC406F61C62
:102A0000F1B238A20020FEF77DFB37480088411B59
:102A100003290ADD0546F1B234A20020FEF772FB5D
:102A2000641C042C0DDB04240BE0291A032908DDA7
:102A30000546F1B22DA20020FEF764FB641E00D50E
:102A40000024FFF7D7FE01287FF40BAF54B1012C0F
:102A500010D0022C11D0032C12D0042CF4D1FFF78B
:102A600001F8FEE6002000F044F802F0B9FA0DB0DB
:102A7000BDE8F08F04F0CAF9F3E6FFF7ADFBF0E62E
:102A8000FFF7C0F9EDE600001A00002078000020F2
:102A900074000020180600200C060020323025307B
:102AA00032642D253032642D2530326420253032B9
:102AB000643A253032643A253032640031303025B2
:102AC0000000000030782530385800002530332EC3
:102AD00032664D696200000080000020252E326CB5
:102AE000665600003E000000840100202000000027
:102AF000FEE770B506467721002004F0E3F87F2159
:102B0000002004F0F0F804F0FFF800240025012173
:102B1000304602F0A5FC0121304602F0A1FC6D1CFC
:102B2000EDB2782DF3D3641CE4B2802CEED370BDEB
:102B300010B5B0F1807F01DD002010BDC0F18070C4
:102B4000FDF7B0FD6FF009042146FDF700FC2146BA
:102B5000FDF7FDFBBDE810400321FDF7F8BB0000C9
:102B6000F8B50024009490F824202546012A12D0BC
:102B7000012280F824204A681F23072A0DD2066804
:102B8000776B521E02EB820293409F430B68934087
:102B90001F43776319E00220F8BD06680D2A0AD2A8
:102BA000376BD21F02EB820293409F430B68934026
:102BB0001F43376309E0F76A0D3A02EB8202934044
:102BC0009F430B6893401F43F7620A680723066818
:102BD0000A2A0AD3F7680A3A02EB420293409F435B
:102BE0008B6893401F43F76008E0376902EB4202AD
:102BF00093409F438B6893401F4337610A68102AB4
:102C000001D0112A20D1124B02689A4217D1936841
:102C10001B0219D4936843F40003936009681029D8
:102C200012D10C490C4A0968B1FBF2F101EB8101A8
:102C3000490000E0491E00910029FBD104E0816AAF
:102C400041F020018162012480F824502046F8BD23
:102C5000002401402C02002040420F000068C06C9C
:102C6000704700002DE9F0414FF0000704003D4699
:102C70007ED0A06A002628B9E66284F82460204647
:102C800000F07EF82046FEF7A3F9A16A01F01001DA
:102C9000014304D0A06A40F01000A06268E0A16A7D
:102CA00021F4885141F00201A1626268E169237B4D
:102CB0000A4347EA43010A43A1684FF48077B942C7
:102CC00008D0012906D0002194F814C0BCF1010FEE
:102CD00002D00AE03946F7E7F3B1A36A43F02003D4
:102CE000A362E36A43F00103E3622368D3F804C0FC
:102CF0002CF4694C4CEA010CC3F804C023689968B1
:102D0000DFF870C001EA0C0111439960A168B94273
:102D10000BD0012909D00CE0DFF85CC0A3690CEBF3
:102D200043330B4343F40061DFE7218A0D05A5F52A
:102D300080152168CB6A23F470032B43CB62216892
:102D400089680E4B1940914208D1E662A16A21F0D0
:102D5000020141F00101A162BDE8F081A06A20F00A
:102D6000020040F01000A062E06A40F00100E06262
:102D70000120F1E7FDF7E1FF00E0FFFFFE0E1FFF7E
:102D800000B585B000210091019102910391006886
:102D90000E49884218D10E48816941F40071816161
:102DA000816901F400710491816941F0040181613C
:102DB0008069694600F0040004900120009003201F
:102DC0000190044800F06CF905B000BD00240140FA
:102DD00000100240000801402DE9F84300260D468E
:102DE0000446009600F056FA804620688168C905BE
:102DF00008D5A06A40F02000A06284F82460012079
:102E0000BDE8F8834168C90503D4C06A10F4700FA7
:102E100026D0022000F012FB38490968B1FBF0F718
:102E20002068036936490B424FEA61014FEAA1125B
:102E30001BD1C3684FEA611C13EA0C0F15D103695B
:102E40000B4221D1C06810421ED114201FE0681C23
:102E500006D045B300F01EFAA0EB0800A84222D825
:102E6000206800688007F2D52AE003690B4202D18E
:102E7000C168114206D0026922490A4206D1C068DF
:102E8000084203D1542002E0292000E0FC204743FF
:102E9000009813E0681C0ED02DB100F0FBF9A0EBF8
:102EA0000800A84207D9A06A40F00400A06284F894
:102EB00024600320A4E70098401C0090B842E9D3A6
:102EC00021686FF012000860A06A40F40070A062F0
:102ED00020688068C0F3424007280CD1207B50B99D
:102EE000A06A20F48070A062A06AC00403D4A06A23
:102EF00040F00100A062002082E700002C020020C8
:102F0000244992244992240070B5044690F8240084
:102F100001280DD0012084F824002046FEF77EF819
:102F200002004FF0000005D084F82400104670BD68
:102F3000022070BDA16A40F20123994341F48071DF
:102F4000A1621F4D23681F49AB4218D10E6816F4C9
:102F5000702F14D0A66A46F48016A6620E68760515
:102F600005D5A66A26F4005646F48056A662A66ADF
:102F7000F6040AD5E66A26F00606E66206E0A66AC8
:102F800026F48016A6625E68E9E7E06284F8240011
:102F90006FF00200186020688368C3F34243072B78
:102FA00005D1A84208D1096811F4702F04D08168B6
:102FB00041F480118160B9E7816841F4A001F9E72B
:102FC000002801400424014010B590F8211000248D
:102FD000022903D00421816301243DE001680A68CD
:102FE00022F00E020A6001680A6822F001020A60FB
:102FF0001A4A0168914201D1012121E0174A143295
:10300000914201D110211BE0144A2832914201D192
:10301000891515E0114A3C32914201D189140FE023
:103020000E4A5032914202D14FF4803108E00B4AEF
:103030006432914202D14FF4801101E04FF080716F
:10304000064A083A5160012180F82110002180F8D9
:103050002010416B01B18847204610BD0800024096
:1030600070B5044600F016F90546601C02D004480D
:103070000078044400F00EF9401BA042FAD370BD62
:103080002002002070470000044910B50A6802427F
:1030900002D00860FFF7F6FF10BD000014040140E5
:1030A0002DE9F84FDFF8B891002409F1040A0AF17C
:1030B000040B23460F270BF1040EC9E00125A540A0
:1030C0002A40AA427DD1674ED1F804C0ACEB060875
:1030D000B44532D014DCBCF1030F3AD009DCBCF1AA
:1030E000000F2AD0BCF1010F1CD0BCF1020F31D16E
:1030F0001DE0BCF1110F17D0BCF1120F2AD119E05D
:10310000B8F5881F19D006DCB8F5803F15D0B8F5A2
:10311000801F1FD111E0B8F5001F0ED0B8F5041FB5
:1031200018D10AE0CB6815E0CB681B1D12E0CB6814
:1031300008330FE0CB680C330CE08B682BB1012B0C
:103140004FF0080303D0456104E0042302E0056169
:1031500000E00023FF2A01D8064601E000F1040642
:103160004FEA840501D9A5F12005D6F8008007FAB9
:1031700005FC28EA0C0803FA05F548EA0508C6F834
:1031800000804D68ED0062D5374DAE6946F001060E
:10319000AE61AD6924F0030605F001050095334DDD
:1031A00006EB050CDCF80850A607360F07FA06F800
:1031B00025EA0805DFF8B880404503D14FF0000844
:1031C00017E044E0DFF8AC80404502D14FF0010841
:1031D0000FE0DFF8A480404502D14FF0020808E07C
:1031E000DFF89880404502D14FF0030801E04FF02E
:1031F000040808FA06F848EA0508CCF808804D6883
:10320000D9F80060ED034D4601D5164300E0964322
:103210002E604D68DAF80060AD03554601D51643BF
:1032200000E096432E604D68DBF80060ED025D46DD
:1032300001D5164300E096432E604D68DEF800602D
:10324000AD02754601D5164300E096432E60641C1E
:103250000D682A46E5407FF431AFBDE8F88F0000E5
:103260000004014000001110001002400000014065
:1032700000080140000C0140001001400014014012
:103280008068084000D0012070470AB10161704792
:103290000904FBE701488068704700002002002015
:1032A00070B5040011D021684CF6CC40086021684C
:1032B00045F255500860D4E9000141602168A068DA
:1032C0008860FFF7E7FF054609E0012070BD00BFF9
:1032D000FFF7E0FF401B262801D9032070BD2068BE
:1032E000C0680028F4D121684AF6AA2008600020AE
:1032F00070BD00684AF6AA210160002070470000F6
:1033000002488168027811448160704720020020E1
:10331000074810B5016841F010010160032000F07A
:1033200075F8002000F006F800F024F8002010BD29
:103330000020024070B50D4D04464FF47A71287894
:10334000B1FBF0F00A490968B1FBF0F001F083F835
:1033500048B9102C07D200222146501E00F036F842
:1033600000206C6070BD012070BD000020020020B4
:103370002C0200200C4808B5816941F001018161EF
:10338000816901F001010091C16941F08051C16181
:10339000C06900F0805000900448416821F0E0616D
:1033A00041F00071416008BD001002400000014082
:1033B000002809DB00F01F02012191404009800034
:1033C00000F1E020C0F8001170470000F0B40E4B8F
:1033D0001B680C46C3F30223C3F10705042D00D973
:1033E0000425191D072901D2002300E0DB1E012658
:1033F00006FA05F1491E214099409E40761E16406E
:103400003143F0BC04F004B80CED00E0064900F0D4
:10341000070208684FF6FF03184040EA0220034AFB
:1034200010430860704700000CED00E00000FA0552
:10343000014901200862704700000E4210B529A41E
:1034400001461DCC86B08DE81D002AA02A4C0068DC
:1034500004900020012923D002293AD010291DD13F
:1034600061682268D20119D5C1F38342C9031DF8EE
:10347000020009D5616804AAC1F34041515C1F4AAA
:10348000B2FBF1F1484301E01D494843616849023C
:1034900004D440005FF00301B0FBF1F006B010BDB2
:1034A000226AC2F30121012903D1920701D5C80381
:1034B000F4E7022905D1626A920702D549F6404035
:1034C000ECE70329EAD121688903E7D54FF22440CC
:1034D000E4E700F033F96168C1F38131491C490028
:1034E000DAE7000002030405060708090A0B0C0DC1
:1034F0000E0F1010010200000010024000127A00AE
:1035000000093D002DE9F84305460078354CC00719
:1035100054D0E0690026C00008D4E06940F0805033
:10352000E061E069012600F0805000902E480168BB
:10353000C90512D40168804641F480710160FFF72B
:10354000A9FE074605E000BFFFF7A4FEC01B6428E4
:1035500023D8D8F80000C005F6D5206A10F44070D2
:1035600021D0A98801F4407181421CD0206A1F49F2
:10357000012220F440700A6000220A602062C00725
:1035800011D0FFF787FE074641F2883808E000BFF8
:10359000FFF780FEC11B414502D90320BDE8F88337
:1035A000206A8007F4D5206A696820F440700843D7
:1035B00020621EB1E06920F08050E0612878800729
:1035C00005D56068A96820F4404008436060287809
:1035D000C00605D56068E96820F480000843606093
:1035E0000020DBE70010024000700040400442422F
:1035F0002DE9F0470F46050061D0434E306800F0DA
:103600000700B84209D2306820F007003843306024
:10361000306800F00700B84251D128683B4C810760
:1036200012D5400703D5606840F4E06060602878F8
:10363000000703D5606840F4605060606068A96866
:1036400020F0F000084360602878C00728D0686840
:10365000012810D02168022810D0890700292EDA0D
:10366000616821F0030101436160FFF713FE8046AA
:1036700041F288390DE021688903EFE78901EDE720
:10368000FFF708FEA0EB0801494502D90320BDE879
:10369000F0876068696800F00C00B0EB810FEFD133
:1036A000306800F00700B8420BD9306820F00700FE
:1036B00038433060306800F00700B84201D0012084
:1036C000E5E72878400705D56068E96820F4E06000
:1036D000084360602878000706D56068296920F4EF
:1036E000605040EAC100606000F038F86168084A44
:1036F000C1F30311515CC8400649086006480068E0
:10370000FFF718FE0020C2E7002002400010024030
:103710002CAB00082C02002024020020044805499C
:1037200000684968044AC1F30221515CC8407047EF
:103730002C020020001002403CAB00080448054960
:1037400000684968044AC1F3C221515CC84070470F
:103750002C020020001002403CAB000812A185B0F2
:103760000FC98DE80F0014A0144A00680490516836
:10377000134801F00C03042B10D0082B0ED1C1F319
:103780008343C9031DF803000AD5516804AAC1F395
:103790004041515C0A4A5043B0FBF1F005B070471C
:1037A00008494843FAE70000020304050607080930
:1037B0000A0B0C0D0E0F1010010200000010024049
:1037C00000127A0000093D002DE9F84F040070D086
:1037D0002078C04DC00749D06868C0F38100012837
:1037E00007D06868C0F38100022809D16868C00367
:1037F00006D52868800339D560680028E7D035E011
:103800006068B0F5803F0BD010B1B0F5A02F11D09B
:10381000286820F480302860286820F4802002E0A6
:10382000286840F480302860606890B1FFF732FD6E
:1038300006460AE0286840F480202860F0E700BFD0
:10384000FFF728FD801B642873D828688003F7D50C
:103850000CE0FFF71FFD064605E000BFFFF71AFD6D
:10386000801B6428F0D828688003F7D420789A4E0B
:1038700080074FF001094FF0000839D5686810F053
:103880000C0F07D06868C0F38100022809D168686E
:10389000C00306D42868800714D52069012808D100
:1038A00010E02069B0B1C6F80090FFF7F3FC0746BE
:1038B00005E00AE1FFF7EEFCC01B0228C4D8286827
:1038C0008007F7D52868616920F0F80040EAC10058
:1038D00028600DE0C6F80080FFF7DCFC074604E036
:1038E000FFF7D8FCC01B022823D828688007F7D42C
:1038F000207800072CD57948A169D9B1C0F800908B
:10390000FFF7C8FC074604E0FFF7C4FCC01B022811
:103910000FD8686A8007F7D571484FF4FA510068EC
:10392000B0FBF1F0009000BF0098411E0091FAD268
:103930000EE080E0C0F80080FFF7ACFC074604E032
:10394000FFF7A8FCC01B022875D8686A8007F7D467
:103950002078400760D5E8690027C00008D4E869EE
:1039600040F08050E861E869012700F08050009045
:103970005C480168C90513D40168834641F480712D
:103980000160FFF787FC824606E000BFFFF782FC7C
:10399000A0EB0A0064284ED8DBF80000C005F5D57E
:1039A000E06801280AD008B1052813D0286A20F061
:1039B00001002862286A20F0040002E0286A40F032
:1039C00001002862E06841F2883B98B1FFF762FC91
:1039D00082460BE0286A40F004002862EEE700BF50
:1039E000FFF758FCA0EB0A0159455AD8286A80070E
:1039F000F6D50CE0FFF74EFC824605E0FFF74AFCE7
:103A0000A0EB0A0159454CD8286A8007F6D41FB1AB
:103A1000E86920F08050E861E06988B36968C1F323
:103A20008101022944D00228C6F8608004D0FFF743
:103A300031FC044638E034E0FFF72CFC074604E094
:103A4000FFF728FCC01B02282BD828688001F7D478
:103A5000206AB0F5803F05D16868A16820F4003085
:103A600008436860D4E908010843696821F47411C7
:103A700008436860C6F86090FFF70CFC044606E057
:103A800025E000BFFFF706FC001B022809D82868C4
:103A90008001F7D51BE000BFFFF7FCFB001B0228ED
:103AA00002D90320BDE8F88F28688001F4D40EE025
:103AB0000128F7D06868226A00F48031914204D16D
:103AC000616A00F47010884201D00120EAE700200A
:103AD000E8E7000000100240000042428004424239
:103AE0002C02002000700040F8B505004FF00000E7
:103AF00016460C46009006D02CB100226946284696
:103B000000F019F808B10120F8BD287B2070E87B8F
:103B1000E070697B6170A97BA17056B101F047FE2E
:103B2000E070607801F043FE6070A07801F03FFE25
:103B3000A0700020F8BD2DE9F04791460C465FEAE1
:103B400000084AD084B3D8F800004068400744D445
:103B5000404601F0CBFE4FF461620546B0FBF2F146
:103B6000B0FBF2F302FB13503C23B0FBF3F0B5FBC8
:103B7000F2F6607002FB1650B0FBF3F203FB12008A
:103B8000A070182931D31820B1FBF0F7B1FBF0F287
:103B900000FB12102070404601F0A1FE411C04D031
:103BA000A84202D9461B02E017E04FF0FF36A7EB10
:103BB000071000EB4000C0EB001005EBC0152946D4
:103BC000404601F0E2FE40B9701C01D0711900E0DE
:103BD0003146404601F0C5FE10B10120BDE8F08736
:103BE0003946404601F0EEFD00E02170B9F1000FCA
:103BF0000BD0207801F0DBFD2070607801F0D7FD5C
:103C00006070A07801F0D3FDA0700020E6E700000E
:103C100070B5040003D0607C002610B105E00120DF
:103C200070BD2674204600F043F8022060742046E0
:103C300000F010F9042578BB204601F01AFE58BBAD
:103C40002068416821F007014160A06820B1174851
:103C5000016821F0010101601448001F0168A26899
:103C600021F46071114301606068411C04D101209E
:103C7000FFF7E4FB80B1401E21688A6822F00F0242
:103C800042EA10428A602168CA6860F30F02CA6083
:103C9000204601F009FE08B16574C0E7E673012013
:103CA0006073A0736074002070BD0000306C004031
:103CB00008B50068084988420DD1FFF7B9FB0748ED
:103CC000C16941F00061C161C069054900F000604F
:103CD00000900120086008BD00280040001002404C
:103CE0003C0442422DE9F0410D4604003BD0C5B3EF
:103CF000207C01283AD04FF0010884F8108002207F
:103D00006074E87872B301F049FDE073687801F0FF
:103D100045FD6073A87801F041FDA073C2B2617BDC
:103D2000E07B01F0F3FD20732870204601F0DEFDFA
:103D30004FF46161B0FBF1F1002518292DD918224B
:103D4000B1FBF2F1A1EB011101EB4101C1EB01115A
:103D500000EBC1163146204601F017FE0427C8B912
:103D60000BE000E004E00120BDE8F0810220FBE769
:103D7000E07368786073A878CFE7204601F0AFFD64
:103D8000411C0AD0B04208D206490144204601F045
:103D9000E8FD10B167742574E5E784F81180257497
:103DA0000020E1E7805101002DE9F0410D460400BB
:103DB00024D01DB3207C012823D04FF0010884F8C3
:103DC0001080022060742878EAB101F0E7FC4FF41B
:103DD000616100FB01F6687801F0E0FCC0EB0010C7
:103DE00006EB8006A87801F0D9FC35182946204654
:103DF00001F0CBFD0026042710BB0FE00120BDE839
:103E0000F0810220FBE74FF4616148436978C1EB20
:103E1000011100EB8100A9784518E7E720684168A7
:103E200021F005014160204601F059FD411C0AD0F6
:103E3000A84208D206490144204601F092FD10B183
:103E400067742674DAE784F8118026740020D6E7B8
:103E50008051010070B504000AD02068416821F04B
:103E600008014160FFF716FA05464FF47A7608E03C
:103E7000012070BDFFF70EFA401BB04201D90320AC
:103E800070BD206840680007F4D5002070BD70B593
:103E9000040009D0606A002540B125616561A56212
:103EA00094F8510040B10CE0012070BD6068B0F59D
:103EB000827FF4D0E561F2E784F85050204600F0AC
:103EC0003FF8022084F851002068016821F0400189
:103ED0000160A088218900F4827001F40441084344
:103EE000A18901F400610843217C01F0020108432B
:103EF000217D01F001010843218B01F40071084389
:103F0000217F01F03801084394F8201001F080016E
:103F10000843218D01F40051084321680860A0691D
:103F2000042101EA1040216848602068C16921F439
:103F30000061C1616565012084F85100002070BDF9
:103F400030B585B000240094019402940394006875
:103F50001549884225D11548C16941F48041C161A4
:103F6000C16901F480410491816941F008018161D6
:103F700080690F4D00F0080004904FF4204000903D
:103F8000022001900320039069462846FFF788F835
:103F90004FF48040CDE90004694628460294FFF7BB
:103FA0007FF805B030BD000000380040001002402E
:103FB000000C01402DE9F84F044640680025984662
:103FC00016460F464FF0040BB0F5827F01D1A06872
:103FD00088B194F85000012818D0012084F85000CE
:103FE000FFF758F9814694F851004FF0000A012874
:103FF0000ED0022582E084F851B013460A462046CE
:10400000CDF8008000F036F9BDE8F88F0220FBE71C
:10401000002F72D0002E70D084F851B0C4F854A094
:10402000A763A687E687C4F830A0A4F834A0A4F854
:1040300036A0C4F840A0C4F844A0A068B0F5004F72
:1040400009D12068016821F0400101602068016801
:1040500021F48041016020680168490603D40168A9
:1040600041F040010160E068D8B139E02068816822
:10407000C90709D0007BA16B0870A06B401CA0632E
:10408000E08F401EE0870CE0FFF704F9A0EB090188
:10409000414503D3B8F1FF3F03D036E0B8F1000F3C
:1040A00033D0E08F0028E1D11DE020688168C90786
:1040B00009D0C068A16B0880A06B801CA063E08F52
:1040C000401EE0870CE0FFF7E5F8A0EB0901414551
:1040D00003D3B8F1FF3F03D017E0B8F1000F14D0BD
:1040E000E08F0028E1D14A464146204601F0C0FC5D
:1040F00008B120206065606D00B10125012084F8C1
:10410000510084F850A028467EE70325F6E72DE904
:10411000F84F044690F8500000271D461646894681
:1041200001280DD04FF0010B84F850B0FFF7B2F822
:10413000804694F85100BA46012804D0022793E043
:104140000220BDE8F88FB9F1000F73D0002E71D0B6
:10415000032084F85100C4F854A0C4F83090A68617
:10416000E686C4F838A0A4F83CA0A4F83EA0C4F8A1
:1041700044A0C4F840A0A068B0F5004F09D1206861
:10418000016821F0400101602068016841F480412C
:10419000016020680168490603D4016841F04001CC
:1041A0000160E068B0F5006F606803D030B3012EA5
:1041B00024D041E008B1012E1CD1206B2168008879
:1041C000C86006E020688168890709D5216B0988E5
:1041D000C160206B801C2063E08E401EE08609E0F9
:1041E000FFF758F8A0EB0800A84202D3681C01D0E2
:1041F00031E07DB3E08E0028E4D120E0206B21681F
:104200000078087306E020688168890709D5216B6A
:1042100009780173206B401C2063E08E401EE0860D
:104220000AE0FFF737F8A0EB0800A84203D3681CA8
:1042300002D010E017E06DB1E08E0028E3D14246D5
:104240002946204601F042FC08B120206065A068A4
:1042500018B106E0FFE7032706E02068C168806820
:104260000090606D00B1012784F851B084F850A02F
:10427000384666E72DE9F84F044690F850000027CD
:104280000A9E1D4692468B464FF0010901280ED02A
:10429000012084F85000FEF7FDFF804694F851009D
:1042A000616801280CD0B1F5827F07D102E00220BD
:1042B000BDE8F88FA16809B9042801D00227C2E03F
:1042C000BBF1000F27D0BAF1000F24D01DB394F832
:1042D0005100042802D0052084F8510000206065B8
:1042E000C4F838A0E587A587C4F830B0E586A58670
:1042F0002064606420680168490603D4016841F0C5
:1043000040010160E068B0F5006F606805D0E8B377
:10431000012D46D07FE0012795E008B1012D39D16C
:10432000206B21680088C860206B801C2063E08EB1
:10433000401EE0862EE02068816889070FD5E18E57
:1043400069B1B9F1010F0AD1216B0988C160206BF5
:10435000801C2063E08E401EE0864FF0000920683C
:104360008168C9070CD0E18F51B1C068A16B08808A
:10437000A06B801CA063E08F401EE0874FF0010916
:10438000FEF788FFA0EB0800B04200E009E001D38F
:10439000701C50D1E08E0028CDD1E08F0028CAD10A
:1043A0003FE0206B216800780873206B401C20637D
:1043B000E08E401EE0862EE02068816889070FD5D8
:1043C000E18E69B1B9F1010F0AD1216B097801734E
:1043D000206B401C2063E08E401EE0864FF00009F9
:1043E00020688168C9070CD0E18F51B1C068A16B0A
:1043F0000870A06B401CA063E08F401EE0874FF068
:104400000109FEF747FFA0EB0800B04202D3701C81
:1044100001D010E07EB1E08E0028CDD1E08F0028E1
:10442000CAD142463146204601F050FB28B101274F
:104430002020606507E0032705E0A06818B9206820
:10444000C16880680090012084F85100002084F841
:10445000500038462CE710B5401EB0F1807F01D3E4
:10446000012010BD4FF0E02460610F21601702F0C1
:10447000CFFF0020A06107202061002010BD704701
:1044800070B5026804461068D168536910F00F0FC8
:1044900053D003F0010501F490762E435FD0C2079C
:1044A00005D0CA0503D5E26B42F00102E263420780
:1044B00005D5DA0703D0E26B42F00202E26382071D
:1044C00005D5DA0703D0E26B42F00402E26302078B
:1044D00007D501F020022A4303D0E26B42F0080224
:1044E000E263E26B002A34D0800604D5880602D548
:1044F000204602F087FE20684069E16BC0F380101F
:1045000001F008010143204624D002F06DFE20682E
:10451000416949061AD5416921F040014161606B4A
:10452000A0B12D494163606BFEF74EFD002810D00D
:10453000606B416BBDE87040084783060FD58B0662
:104540000DD52046BDE8704002F05CBE2046FFF766
:1045500096FF70BDFFF793FF0020E06370BD030678
:104560002BD50B0629D594F839002128F6D1A0685F
:10457000B0F5805F01D12069B0B1206A411C216291
:10458000216800784860E08C401E0004000CE08444
:10459000E4D12068C16821F08001C1602068C16851
:1045A00041F04001C16070BD206A0088C0F308007E
:1045B0005060206A801C2062E5E74006F3D548067B
:1045C000F1D5D168204621F04001D160202184F846
:1045D000391000F074F970BDD971000870B504008D
:1045E00004D094F83900002510B106E0012070BD18
:1045F00084F83850204600F023F8242084F839004D
:104600002068C16821F40051C160204602F040FEDC
:104610002068016921F4904101612068416921F01D
:104620002A0141612068C16841F40051C160E5631D
:10463000202084F8390084F83A00002070BD000082
:1046400070B586B00024009401940294039403682A
:104650002E482D4E022103220515B34226D183692F
:1046600043F480438361836903F480430493836943
:1046700043F0040383618069254E00F00400049038
:104680000802CDE90001039269463046FEF708FDB5
:10469000CDE90054694630460294FEF701FD002240
:1046A00011462520FEF792FE252028E0194EB34240
:1046B00027D1C36943F48023C361C36903F4802312
:1046C0000493836943F0080383618069CDE9005155
:1046D00000F00800CDE903200F4D69462846FEF79B
:1046E000DFFCE814CDE90004694628460294FEF791
:1046F000D7FC002211462720FEF768FE2720FEF790
:1047000057FE06B070BD00000038014000100240A6
:104710000008014000480040000C014090F83A3089
:10472000202B22D1F9B1F2B190F83830012B1CD0F6
:1047300081628285C2850021C163222280F83A20ED
:1047400080F838100168CA6842F48072CA60016853
:104750004A6942F001024A610068C16841F02001E3
:10476000C1600020704701207047022070470000A0
:1047700070B5064600681E4900251E4C88420FD1C0
:104780001E491D4B227808681A54401C0860B0F579
:10479000007F00D30D60012216491948FFF7BEFFC4
:1047A00018493068884222D16068010412D441045B
:1047B000617804D50A290CD140F4004015E00D2998
:1047C00011D0C0F30D02104B401C63289954606057
:1047D00000D965600749BDE8704009480122491CBD
:1047E0004030FFF79BBF40F480406060F2E770BD4F
:1047F00000380140780100209802002008000020C5
:104800008406002000480040F40400202DE9F8430D
:10481000044690F839001F4616460D4620284CD114
:10482000C5B1BEB194F83800012846D0012084F803
:1048300038004FF00008C4F83C80212084F839008B
:10484000FEF728FDA6848146E684A068B0F5805F67
:1048500003D004E00120BDE8F883206928B12E468A
:104860005FF0000584F838800EE00026FAE780212A
:10487000204602F069FDA0B9AEB116F8010B21681F
:104880004860E08C401EE084E08C4B464FF0000214
:1048900000970028EBD14FF04001204602F054FD74
:1048A00030B10320D7E735F8020BC0F30800E6E784
:1048B000202084F839000020CDE70220CBE77047A4
:1048C0002DE9F04F95B004463022654906A8FBF764
:1048D00039FC64A12046FBF759FC801C044662A108
:1048E000FBF754FC4FF0000A074680F800A0204672
:1048F000FBF720FD0646B7F80100ADF81000F87888
:104900005A4D8DF8120001200DF11808686169698F
:1049100008EB810050F8041C04A803F0D3FD002824
:104920005CD068690024401C68610D28EFDB50A151
:10493000781CFBF72BFC81464BA1401CFBF726FCA7
:10494000804680F800A057464846FBF7F3FC8246B5
:1049500008F10100814647A1FBF718FC804607706B
:104960004846FBF7E7FC834608F10100814641A178
:10497000FBF70CFC804607704846FBF7DBFC07465C
:1049800008F10100FBF7D6FC0246EA6205F11805C2
:10499000504651C50BF1080165E80917012C1FD0DD
:1049A000032C1DD0052C1BD0072C19D0082C17D098
:1049B0000A2C15D00C2C13D0042C13D0062C11D09B
:1049C000092C0FD00B2C0DD04FF4C87390FBF3FCC7
:1049D00003FB1C0373B1830706D00DE06C69A6E7E7
:1049E0001F230AE01E2308E0642390FBF3FC03FB73
:1049F0001C030BB11D2300E01C2318290FDB183901
:104A0000761CC5E908619E4209DDF11A641CC5E9FE
:104A100007410C2C03DD401C0C3CC5E9060413487F
:104A200095F824100A300170477082705E3095F856
:104A300020108170297F4170297E0022A1F5FA6142
:104A4000C170A0F15E010C48FFF7AEF907490022E2
:104A500068310948FFF746F915B0BDE8F08F00004E
:104A60003CA900082C0000002000000010000020DD
:104A7000323000003A000000180600202DE9F04115
:104A8000574DA0B0074600244FF4007631465548F4
:104A9000AC60FBF770FB544A54A1684602F0A4FCDA
:104AA0004FF47A7258A16846FDF750FE40B157A006
:104AB000FDF7DCFD00283DD157A0FDF7D7FD28B359
:104AC0005A48FEF716FC31464648AC60FBF753FBEC
:104AD00064224DA156A0FDF739FE31464148AC6035
:104AE000FBF749FB6420FEF7BBFA80216846FBF721
:104AF00042FB4FF4FA78424643A151A0FDF726FE4F
:104B000080B142A0FDF7B2FDA0B903E0012020B0C2
:104B1000BDE8F08142463CA149A0FDF717FE08B16F
:104B20000320F4E74148FEF7E4FB31462D48AC6032
:104B3000FBF721FB454802F047FC454945A002F040
:104B400043FC42480F3002F03FFC40482D3002F059
:104B50003BFC414941A002F037FC3C48363002F0B2
:104B600033FC3A484E3002F02FFC01223DA11C4894
:104B700002F03AFC1A4802F027FC3448C01F02F049
:104B800023FC39A002F020FC6420FEF769FA06E05D
:104B90000A20FEF765FA35A0FDF768FD18B96868C8
:104BA000401E6860F4D16420FEF75AFA2821384686
:104BB000FBF7E1FA1D48FEF79CFB0A48007840B17C
:104BC0002CA10848FBF7E2FA01461F223846FBF702
:104BD000B9FA387808B1002099E7022097E7000079
:104BE00000000020980200206801002041542B435F
:104BF000495053544152543D22544350222C2225B3
:104C000073222C38300000004F4B000042616420BA
:104C10005265717565737400414C52454144592089
:104C2000434F4E4E45435445440000000C060020BF
:104C300041542B4349504D4F44453D310000000045
:104C400041542B43495053454E440000DBA8000813
:104C50008800002025730000A000002025730D0AA5
:104C600000000000256400003B0000004854545040
:104C700000000000446174653A20000070B50C46E5
:104C80001546810801F11F02D01E114602F01AF8E4
:104C900004F10B00C1B2204602F025F802F034F80E
:104CA000064E002405EB450504EBC500305CFCF71F
:104CB00003FF641CE4B2182CF6D370BD64A3000893
:104CC00070B50C461546810801F12102501F1146AE
:104CD00001F0F8FF04F11700C1B2204602F003F81A
:104CE00002F012F8064E002405EBC50504EBC500E2
:104CF000305CFCF7E1FE641CE4B2482CF6D370BDD6
:104D0000B4A700083EB50024104800940194029412
:104D10000D498460016001250573047505614FF438
:104D200060214460C161FDF79DFF08B1FDF7E0FE21
:104D3000CDE90045694605480294FDF711FF0028BA
:104D400001D0FDF7D5FE3EBD00240140DC0500206A
:104D50002DE9F04786B000244A480094019402945B
:104D60000394816941F010018161816901F01001B2
:104D70000491816941F020018161816901F0200184
:104D80000491816941F004018161816901F00401AC
:104D90000491816941F0080181618069DFF8E89040
:104DA00000F00800049000224FF4FB714846FEF723
:104DB0006CFADFF8D8A041F20207002239465046CB
:104DC000FEF763FA0122D1024846FEF75EFA4FF47D
:104DD0000078012241465046FEF757FA40F6F600A9
:104DE00001250226CDE90005CDE90246694648467F
:104DF000FEF756F90820CDE90004694648460294BA
:104E0000FEF74EF900970396CDE9015469465046E6
:104E1000FEF746F94FF48270CDE90004694650462A
:104E20000294FEF73DF92802009001AA112082E8C1
:104E3000510069464846FEF733F920200090144897
:104E4000CDE9010569465046FEF72AF9C0208DE8F4
:104E5000310069465046FEF723F90320CDE90250A0
:104E6000CDE9008569465046FEF71AF90022114641
:104E70001720FEF7ABFA1720FEF79AFA06B0BDE846
:104E8000F08700000010024000080140000C0140C3
:104E900000002110094810B5074901600621416052
:104EA00040F6FF718160FEF7FBF9002803D0BDE8F2
:104EB0001040FDF71DBE10BD003000400C06002064
:104EC0001CB5002418480194164900940160611E25
:104ED00041604FF480718160FEF79AFE08B1FDF7E2
:104EE00007FE8DF804408DF805408DF8064001223C
:104EF00001A90D48FEF758FF08B1FDF7F9FD0120A3
:104F00008DF800008DF801008DF8020002468DF842
:104F1000034069460448FEF7E5FE002801D0FDF78E
:104F2000E7FD1CBD00280040180600200F4810B502
:104F30000D4901604FF48271416000218160C160C0
:104F40004FF400720161C0E90512C1610162416262
:104F500081620A21C162FEF79AFF002803D0BDE8F2
:104F60001040FDF7C5BD10BD003800402C060020E4
:104F70000C4810B50A4901604FF4E131416000214D
:104F800081600C22C160C0E904128161C161FFF738
:104F900025FB002803D0BDE81040FDF7A9BD10BDDA
:104FA00000380140840600200C4810B50A49016011
:104FB0004FF4E1314160002181600C22C160C0E901
:104FC00004128161C161FFF709FB002803D0BDE82D
:104FD0001040FDF78DBD10BD00480040C406002004
:104FE00070B58CB002F01CFF00287DD11A26192064
:104FF000CDE90006FF2300220121AA20FDF743FA94
:10500000002211461046FFF75BFE714C606BFBF708
:10501000A8FB02460B466FA103A802F0E5F903AA1C
:1050200000212420FCF732F8012200216020FFF744
:1050300047FE022200218820FFF742FEA06BFBF70B
:1050400090FB02460B4665A103A802F0CDF903AA26
:105050000021AC20FCF71AF80C2003460022009037
:105060001D21104601F054FEE06BFBF77AFB02466F
:105070000B465CA103A802F0B7F903AA1D210D207D
:10508000FCF77AF82825CDE9006552231A4601215C
:10509000AA20FDF7F8F9228954A103A802F0A4F987
:1050A00054A21D215720FCF767F803AA1D21702088
:1050B000FCF762F8CDE90065AF231A460121AA206A
:1050C000FDF7E1F9E2884DA103A802F08DF94DA2A8
:1050D0001D21B420FCF750F803AA1D21DC20FCF7A9
:1050E0004BF80095FF2300E06FE000220121AA2089
:1050F0000195FDF7C8F945A229210020FCF73CF8ED
:1051000044A103A8A26C02F06FF903AA292132205E
:10511000FCF732F841A229216420FCF72DF8A2887F
:105120003FA103A802F060F903AA29217820FCF727
:1051300023F83426CDE90056AF231A460121AA20D0
:10514000FDF7A1F938A22921B420FCF715F8206C4D
:10515000FBF707FB02460B4634A103A802F044F913
:1051600003AA2921D820FCF707F80096FF23002284
:105170000121AA200196FDF786F904F1200007C855
:105180008DE80700D4E906232AA103A802F02CF930
:1051900003AA36216420FBF7EFFF606CFBF7E1FA0E
:1051A00002460B462AA103A802F01EF903AA3621E3
:1051B0000020FBF7E1FF28A103A8226B02F014F9FD
:1051C00003AA36213220FBF7D7FF0CB070BD0000D8
:1051D000100000202530322E326600002530322E9D
:1051E0003266250025362E30665061002530336446
:1051F00070706D00434F323A000000002530336478
:105200000000000054564F433A000000504D322E2B
:10521000353A0000253034647567000055563A0071
:10522000253034647557000047523A00252E306609
:10523000680000005550543A2530326425303264FD
:105240002530326420253032643A25303264000043
:10525000252E3266560000002564646200000000BE
:10526000FEE7704710B57D4C012280212046FEF7F5
:105270000CF80A20FDF7F4FE002280212046FEF7FC
:1052800004F80A20FDF7ECFE012280212046FDF7FC
:10529000FCFF0021AE2000F0E3F80021FD2000F02B
:1052A000DFF80121122000F0DBF80021B32000F02C
:1052B000D7F80121912000F0D3F80021CA2000F096
:1052C000CFF801213F2000F0CBF80021A22000F010
:1052D000C7F80121002000F0C3F80021A12000F050
:1052E000BFF80121002000F0BBF80021A02000F051
:1052F000B7F80121142000F0B3F80121112000F0CB
:10530000AFF80021B52000F0ABF80121002000F03B
:10531000A7F80021AB2000F0A3F80121084600F017
:105320009FF80021B42000F09BF80121A02000F09C
:1053300097F80121F82000F093F80021C12000F037
:105340008FF80121EF2000F08BF80021C72000F03A
:1053500087F80121FF2000F083F80021B82000F039
:105360007FF801210C2000F07BF80121182000F0CB
:1053700077F80121242000F073F80121302000F09B
:105380006FF801213C2000F06BF80121482000F06B
:1053900067F80121542000F063F80121602000F03B
:1053A0005FF801216C2000F05BF80121782000F00B
:1053B00057F80121842000F053F80121902000F0DB
:1053C0004FF801219C2000F04BF80121A82000F0AB
:1053D00047F80121B42000F043F80021084600F00E
:1053E0003FF80021B12000F03BF80121E22000F05D
:1053F00037F80021D12000F033F80121A22000F07D
:105400002FF80121202000F02BF80021BB2000F014
:1054100027F801211F2000F023F80021B62000F01A
:105420001FF80121082000F01BF80021BE2000F029
:1054300017F80121072000F013F80021A62000F042
:105440000FF80021A92000F00BF80020FDF751FB18
:105450000021BDE81040AF2000F002B80008014074
:1054600070B51A4E054609B1012200E00022402124
:105470003046FDF70AFF002202213046FDF705FF06
:105480000024002220213046FDF7FFFE280601D52A
:10549000012200E0002210213046FDF7F6FE012235
:1054A00020213046FDF7F1FE6806641C050EE4B2CB
:1054B000082CE6D3012202213046FDF7E6FE3046F5
:1054C000BDE8704001224021FDF7DFBE0008014029
:1054D000204B00B5187880B9587870B9987860B9C1
:1054E000D87850B9187940B9587930B9987920B935
:1054F000D87910B9187A00282AD0164802F016FC7C
:10550000154A5063181D02F011FC906311480830D1
:1055100002F00CFCD0630F480C3002F007FC106462
:10552000187C107053F8110F00BAD97820F0FF00E2
:1055300008439064988840BA9080D88840BA108117
:10554000188940BAD08003481B3002F0EFFB50644A
:1055500000BD0000B40400201000002000B5024689
:1055600002F0E4FB144B1860101D02F0DFFB5860E2
:1055700002F1080002F0DAFB986002F10C0002F080
:10558000D5FBD860D2F81100117D00BA20F0FF00E1
:1055900008431861B2F8150040BA9882B2F81700B3
:1055A00040BAD882B2F8190040BA188302F11B0041
:1055B00002F0BCFBD86100BDD404002070B50446E5
:1055C00002F0B4FB104D2860201D02F0AFFB6860B4
:1055D00004F1080002F0AAFBA86004F10C0002F03C
:1055E000A5FBE86054F8110F00BAE17820F0FF0045
:1055F00008432861A08840BAA882E08840BAE882BF
:10560000208940BA288370BD9804002070470000AC
:105610002DE9F04FB7B083460146402206A8FBF7BC
:105620007DFEDDE90E50824606A8FFF7C7FF474C16
:10563000A068FBF796F8804689466068FBF791F80A
:1056400006460F462068FBF78CF8024620690B4699
:10565000CDE903908DE8C0013DA116A801F0C4FE7C
:1056600016AA0D210020FBF74DFD02AE0AF0FF0344
:105670002A0EC5F30741C5F3072086E80F00E9B2FB
:10568000208BCDE90001E38AA28A38A116A801F097
:10569000ABFE16AA16210020FBF734FD3E48006839
:1056A000A0F5803140394DD040220BF1400106A8D1
:1056B000FBF734FE9DF81800FF2807D19DF819006C
:1056C000FF2803D19DF81A00FF283BD0DDE90E50DA
:1056D000824606A8FFF772FFA068FBF742F88146F2
:1056E00088466068FBF73DF806460F462068FBF7E2
:1056F00038F8024620690B46CDE903808DE8C002E8
:1057000013A116A801F070FE16AA1F210020FBF7B6
:10571000F9FC02AE0AF0FF032A0EC5F30741C5F3F8
:10572000072086E80F00E9B2208BCDE90001E38A6B
:10573000A28A0EA116A801F057FE16AA2821002061
:10574000FBF7E0FC37B0BDE8F08F000098040020C4
:10575000252E31664320252E3166252520252E3025
:105760006650612025647567000000002564755748
:1057700020256470706D20256470706220323025A1
:105780003032642530326425303264202530326472
:10579000253032640000000074000020010901EB94
:1057A000810100F00F0000EB4100C0B27047002102
:1057B00002E00A38C0B2491C0A28FAD2090740EAB6
:1057C000116070472DE9F04104460025C07B627BE3
:1057D000A37B42E0012A16D0032A14D0052A12D056
:1057E000072A10D0082A0ED00A2A0CD00C2A0AD078
:1057F000042A10D0062A0ED0092A0CD00B2A0AD06F
:10580000022A0DD028E01F2B0CD30C2A05D101222F
:105810001346401C20E01E2B04D30123521C1BE026
:105820001C2B02D203F1010316E011D183B29E07B3
:1058300010D16426B3FBF6F706FB173636B94FF4E2
:10584000C876B3FBF6F706FB17331BB91D2303E03D
:105850001D2B01D1032201236D1C8D42BAD3D1B27D
:10586000E0736173DAB2A27300F050F82073BDE800
:10587000F08170B50446FDF70DFD05464FF47A76CC
:1058800006E0FDF707FD401BB04201D9032070BDC3
:10589000206840688006F4D52068416841F0100116
:1058A0004160002070BD000070B50446006841688A
:1058B00021F010014160FDF7EDFC05464FF47A76CA
:1058C00007E000BFFDF7E6FC401BB04201D9032012
:1058D00070BD206840688006F4D5002070BD016866
:1058E000086A496A89B241EA0040704700688169E4
:1058F0008AB2C1698BB2816989B28A4203D0C06918
:1059000061F31F40704743EA02407047F0B56424DA
:10591000C1EBC1030927A500072603EB01130329E7
:10592000B3FBF7F100F5FA60114401440AD2401EBE
:10593000B0FBF4F201EB9001B0FBF5F0891A0844DA
:10594000001D08E0B0FBF4F201EB9001B0FBF5F0B4
:10595000891A0844801CB0FBF6F106FB1100C0B2A6
:10596000F0BD70B50D4606460024FFF782FF48B92A
:105970003168280C08623168A8B248623046FFF7E7
:1059800093FF00B10124204670BD70B50D46064658
:105990000024FFF76EFF48B93168280C8861316830
:1059A000A8B2C8613046FFF77FFF00B1012420464E
:1059B00070BD00000748064901600749416007497A
:1059C00081600749C160074901610749416170472A
:1059D0006D60000804070020E76A0008B16B00084A
:1059E000596000089D6B00082D6A000800B50C483E
:1059F00093B0416EB1F5803F10D0402268464039E7
:105A0000FBF78CFC202269460648FAF79BFBDDE990
:105A10000801CDE9100110A802F03EFA13B000BD54
:105A200010000020B404002038B5104C0122616E33
:105A300003E0616E4031012261666846FBF76EFC4F
:105A40009DF80000FF28F4D10849606EE131020C96
:105A50008A71020ACA7108720020FBF7C9FB034869
:105A600072220021E130FBF78FFC38BD10000020CE
:105A7000F8B5044640684FF48273984217D1A06885
:105A80004FF48065B0F5004F01D0A8420FD12068D7
:105A9000066826F0400606606068984207D1A06854
:105AA000A84204D100920B460022012103E000929B
:105AB0000B4600228021204600F018F8002804D070
:105AC000606D40F0200060650320F8BD38B50B46DE
:105AD000009204460022802100F008F8002804D03B
